:020000040000FA
:10000000280320204D010000510100005301000091
:1000100000000000000000000000000000000000E0
:10002000000000000000000000000000550100007A
:10003000000000000000000057010000590100000E
:100040005B0100005B0100005B0100005B01000040
:100050005B0100005B0100005B0100005B01000030
:10006000000000005B0100005B01000000000000D8
:10007000000000005B0100005B01000011060000B1
:100080005B0100005B0100005B0100005B01000000
:100090005B0100005B0100000000000000000000A8
:1000A0005B0100005B010000000000000000000098
:1000B0005B010000000000005B0100005B0100002C
:1000C00000F002F800F032F80CA030C8083824180C
:1000D0002D18671EA246AB4654465D46AC4201D180
:1000E00000F024F87E460F3EB6460FCC0126334280
:1000F00000D0FB1A3343A246AB461847CC09000098
:10010000DC09000000000000002300240025002678
:10011000103A01D378C1FBD8520700D330C100D5C3
:100120000B6070471FB51FBD10B510BD00F027F85C
:100130001146FFF7F7FF00F039FB00F03FF803B47A
:10014000FFF7F2FF03BC00F045F800000648004747
:10015000FEE7FEE7FEE7FEE7FEE7FEE703480449A9
:10016000024A044B70470000C10000002802202012
:1001700028032020280220207047704770477546CA
:1001800000F024F8AE46050069465346C008C0009A
:10019000854618B020B5FFF7E1FF60BCB6460026E3
:1001A0000027C0C5C0C5C0C5C0C5C0C5C0C5C0C585
:1001B000C0C5403D490849008D46704710B504460A
:1001C000C046C0462046FFF7BAFF10BD0048704742
:1001D0000000202001491820ABBEFEE726000200E7
:1001E0007047811E091F00BFFCD2704784B0039086
:1001F0000291019203980068009000980199884349
:10020000009000980299019A1140084303990860F0
:1002100004B0704781B0009000990120C2024848A4
:10022000885001B07047C04682B00190009100989C
:100230000349084301998900084A885002B0704771
:100240008000040082B00190009100988021084352
:1002500001998900014A885002B0704704804240E9
:1002600081B0009000995C4A5C48885001B07047AA
:1002700006490868012290430860704703490868EE
:1002800001221202904308607047C04608010B40EB
:1002900081B001466846017000780249086001B0EB
:1002A0007047C04608030B4080B582B0014601A8E4
:1002B000017001780F480F22FFF798FF02B080BD50
:1002C00080B582B0014601A801700178024803227E
:1002D000FFF78CFF02B080BD00010B4080B582B0FB
:1002E000014601A80170017802483022FFF77EFF25
:1002F00002B080BD04010B4081B000900099112034
:100300000202885801231843885001B0704700004A
:1003100082B001900091009B0199034A88581843CC
:10032000885002B07047C0462810000081B000908D
:1003300000990120C2020248885001B07047C046AF
:100340000100002681B000900098812149014058A9
:10035000C0B201B070470000B0B51122120283583C
:100360000124A34383508B780C881C438B88234340
:10037000094C1C408358094D1D402B1983508B7923
:10038000CC791C43097A21437E23194080184268A6
:100390009A4351184160B0BD18670000E798FDFF0F
:1003A00081B0009000983A494058042108408008E4
:1003B00001B0704781B00090009802494058C0B227
:1003C00001B070472411000081B000900099024AEA
:1003D0000248885001B0704704080000030000B1D3
:1003E00080B584B003900291019203980B494018A4
:1003F0000299EC4AFFF7FAFE03980949401801995F
:100400003F22FFF7F3FE0399064A88188958012214
:100410001140FFF7EBFE04B080BDC0461011000094
:10042000141100000411000010B5012212038318FA
:100430000C789C604978815010BD80B582B00190E5
:100440000091019811210902401800990322D2035A
:10045000FFF7CCFE02B080BD0D4A8018026812067C
:1004600008D50268120605D50268120602D5026890
:100470001206F3D481610168C90708D00168C90771
:1004800005D00168C90702D00168C907F3D17047D8
:100490000811000080B584B0164900200290088041
:1004A00015490880814908807C49088013490870F3
:1004B0007F4908607A4908607A49088003A9088062
:1004C000FFE703A800881F280BD8FFE703A80288CE
:1004D000754900208854FFE70398401C03A9088051
:1004E000EFE70F20019000F0E7F8019800F0FAF82C
:1004F00004B080BDF2002020F00020202402202043
:1005000080B582B0FFE7694800886449098888425D
:100510000ED0FFE7654A11886648415C01A801706A
:100520001188491CC9B21180007800F04BF9EAE744
:1005300002B080BD80B582B0142002210191FFF786
:1005400081FE01991520FFF76FFE02B080BD80B5D6
:1005500082B000200190FFF79BFE0198FFF7B0FEEC
:10056000FFF786FEFFF78AFE0198FFF7B7FE0198B6
:10057000FFF79AFE02B080BD80B582B00D494648B3
:100580000190FFF751FF01980B49FFF7E5FE019835
:100590000021FFF752FF019811211722FFF720FFDA
:1005A000019801218902FFF7B3FE0198FFF7A4FE2D
:1005B00002B080BDBC0A0000BE0A000080B500F099
:1005C00007F8FFF7B7FFFFF7C2FFFFF7D5FF80BDC2
:1005D00080B584B00C480190FFF742FE0B480290B2
:1005E000FFF73EFE2C480390FFF7EEFE0198FFF761
:1005F00011FE0298FFF70EFE0398FFF797FE1020FA
:10060000FFF7EFFD04B080BD00000A4000200A4063
:1006100080B582B02048FFF795FE0B2839D1FFE75F
:10062000FFE71D48FFF7BCFE002831D1FFE71A485D
:10063000FFF7C0FE01A9087018480088401CC0B22E
:100640006946088016490868401C086015480088FB
:100650001F2808D8FFE70198124B1A88511C1980EF
:1006600011498854FFE76846008810490988884284
:1006700008D0FFE7019809490B880E4AD05400982A
:10068000088004E00A490868401C0860FFE7C8E7E2
:10069000FFE702B080BDC04600801040220220204B
:1006A000F400202018012020F80020202002202023
:1006B0001C0120202001202081B0014668460170E5
:1006C00000214056002809D4FFE7684601781F2022
:1006D00001400120884002490860FFE701B07047EF
:1006E00080E200E081B0014668460170002140567A
:1006F000002809D4FFE7684601781F200140012047
:10070000884002490860FFE701B0704700E100E05F
:1007100086B0059004A8018003A92248088002A998
:1007200000200880FFE702A8008804A90988884201
:1007300033DAFFE7059802A90988405C01020398B3
:10074000484003A9088001A900200870FFE701A81C
:10075000007807281BD8FFE703A8008800040028BA
:1007600007D5FFE7039840000F49484080B200904A
:1007700004E00398400080B20090FFE7009803A9CE
:100780000880FFE70198401C01A90870DFE7FFE738
:100790000298401C02A90880C5E703A8008806B09B
:1007A0007047C046FFFF00002110000080B582B0F6
:1007B00000200190FFF702FFFFF76CFEFFE7FFF755
:1007C0009FFEFCE780B582B001A908703748008819
:1007D00000280ED1FFE701A80078D32808D1FFE751
:1007E0000198324B1A88511C198088498854FFE7B8
:1007F0005AE02E480088012816D1FFE701A80078AA
:10080000912808D1FFE70198284B1A88511C1980BC
:100810007E49885407E001A80078D3384142484116
:1008200022490880FFE73FE0204800888F2806D350
:10083000FFE71F49002008801C49088034E0019927
:100840001A4803885A1C0280704AD15400880B2829
:1008500016D1FFE76D49487A897A0902411868463E
:1008600001800088812806D3FFE711490020088015
:100870000E49088018E000980F300D490880FFE706
:100880000B48008800280FD0FFE708480088084977
:100890000988884208D1FFE700F00CF804490020DD
:1008A000088002490880FFE702B080BDF0002020E8
:1008B000F200202080B586B05448417A827A120234
:1008C0008A1805A90A80C279037A1B02D21804ABE0
:1008D0001A8009880A18D17A127B1202891803AA91
:1008E000118002AA002111800078D3281BD1FFE7D4
:1008F00046484078912816D1FFE705A8008843496B
:100900004018407B91280ED1FFE705A800883F4999
:100910004018807BD32806D1FFE7029801210843C5
:1009200002A90880FFE739488078012806D1FFE74F
:1009300002980221084302A90880FFE73348C078E3
:1009400003280BD1FFE731480079022806D1FFE7E1
:1009500002980421084302A90880FFE72B48407948
:1009600050281FD1FFE705A8008808281AD1FFE703
:100970002648C07A022815D1FFE72448007B0128C9
:1009800010D1FFE72148407B80280BD1FFE71F48AB
:10099000807B002806D1FFE702980821084302A9BE
:1009A0000880FFE703A800880190059909311748DE
:1009B000801C89B2FFF7ACFE01460198884206D13F
:1009C000FFE702981021084302A90880FFE702A868
:1009D000008805210840052816D1FFE70B4840791B
:1009E000502811D1FFE702AA10881F384142484120
:1009F0000749087004A8008809784B4259418900CA
:100A0000128800F007F8FFE706B080BD60002020E4
:100A100024022020B0B58EB00DAB18800CA8017058
:100A20000BA90A8006AA0192D3200290107091208F
:100A300000905070901C012494700224D4700325FF
:100A400015717F25557194710D9CD4715B7813726B
:100A5000042353720023039393725023D3720C9B8D
:100A600013730B9B5373497891730D21FFF750FE5D
:100A7000009B019A02990546039804AC2580049DC9
:100A8000D573647814745374917405A90870FFE7E2
:100A900005A8007812280DD8FFE705A8017806A858
:100AA000415C0548FFF7D8FCFFE70598401C05A905
:100AB0000870EDE70EB0B0BD0080104008000000E7
:100AC0001800000000300000D80A000000002020BC
:080AD0002803000008010000EA
:04000005000000C136
:00000001FF
